{
  "contractName": "KOLogic",
  "abi": [
    {
      "constant": false,
      "inputs": [],
      "name": "withdrawPayments",
      "outputs": [],
      "payable": false,
      "stateMutability": "nonpayable",
      "type": "function"
    },
    {
      "constant": false,
      "inputs": [],
      "name": "renounceOwnership",
      "outputs": [],
      "payable": false,
      "stateMutability": "nonpayable",
      "type": "function"
    },
    {
      "constant": true,
      "inputs": [],
      "name": "owner",
      "outputs": [
        {
          "name": "",
          "type": "address"
        }
      ],
      "payable": false,
      "stateMutability": "view",
      "type": "function"
    },
    {
      "constant": true,
      "inputs": [
        {
          "name": "_dest",
          "type": "address"
        }
      ],
      "name": "payments",
      "outputs": [
        {
          "name": "",
          "type": "uint256"
        }
      ],
      "payable": false,
      "stateMutability": "view",
      "type": "function"
    },
    {
      "constant": false,
      "inputs": [
        {
          "name": "_newOwner",
          "type": "address"
        }
      ],
      "name": "transferOwnership",
      "outputs": [],
      "payable": false,
      "stateMutability": "nonpayable",
      "type": "function"
    },
    {
      "inputs": [
        {
          "name": "_blockCreationPrice",
          "type": "uint256"
        },
        {
          "name": "_storageAddress",
          "type": "address"
        }
      ],
      "payable": false,
      "stateMutability": "nonpayable",
      "type": "constructor"
    },
    {
      "anonymous": false,
      "inputs": [
        {
          "indexed": false,
          "name": "_name",
          "type": "string"
        }
      ],
      "name": "NewValidUniversity",
      "type": "event"
    },
    {
      "anonymous": false,
      "inputs": [
        {
          "indexed": false,
          "name": "value",
          "type": "uint256"
        }
      ],
      "name": "UpdatedBlockCreationValue",
      "type": "event"
    },
    {
      "anonymous": false,
      "inputs": [
        {
          "indexed": false,
          "name": "newStorageAddress",
          "type": "address"
        }
      ],
      "name": "UpdatedStorageAddress",
      "type": "event"
    },
    {
      "anonymous": false,
      "inputs": [
        {
          "indexed": false,
          "name": "x",
          "type": "uint8"
        },
        {
          "indexed": false,
          "name": "y",
          "type": "uint8"
        },
        {
          "indexed": true,
          "name": "universityName",
          "type": "string"
        },
        {
          "indexed": true,
          "name": "oldOwner",
          "type": "address"
        },
        {
          "indexed": true,
          "name": "newOwner",
          "type": "address"
        },
        {
          "indexed": false,
          "name": "price",
          "type": "uint256"
        }
      ],
      "name": "BlockBought",
      "type": "event"
    },
    {
      "anonymous": false,
      "inputs": [
        {
          "indexed": false,
          "name": "x",
          "type": "uint8"
        },
        {
          "indexed": false,
          "name": "y",
          "type": "uint8"
        },
        {
          "indexed": true,
          "name": "universityName",
          "type": "string"
        },
        {
          "indexed": false,
          "name": "_imageURL",
          "type": "string"
        },
        {
          "indexed": false,
          "name": "_description",
          "type": "string"
        },
        {
          "indexed": true,
          "name": "_blockOwner",
          "type": "address"
        },
        {
          "indexed": true,
          "name": "_forSale",
          "type": "bool"
        },
        {
          "indexed": false,
          "name": "_price",
          "type": "uint256"
        }
      ],
      "name": "BlockInformationUpdated",
      "type": "event"
    },
    {
      "anonymous": false,
      "inputs": [
        {
          "indexed": true,
          "name": "previousOwner",
          "type": "address"
        }
      ],
      "name": "OwnershipRenounced",
      "type": "event"
    },
    {
      "anonymous": false,
      "inputs": [
        {
          "indexed": true,
          "name": "previousOwner",
          "type": "address"
        },
        {
          "indexed": true,
          "name": "newOwner",
          "type": "address"
        }
      ],
      "name": "OwnershipTransferred",
      "type": "event"
    },
    {
      "constant": false,
      "inputs": [
        {
          "name": "_blockCreationPrice",
          "type": "uint256"
        }
      ],
      "name": "setBlockCreationPrice",
      "outputs": [],
      "payable": false,
      "stateMutability": "nonpayable",
      "type": "function"
    },
    {
      "constant": false,
      "inputs": [
        {
          "name": "_storageAddress",
          "type": "address"
        }
      ],
      "name": "setStorageAddress",
      "outputs": [],
      "payable": false,
      "stateMutability": "nonpayable",
      "type": "function"
    },
    {
      "constant": false,
      "inputs": [
        {
          "name": "_name",
          "type": "string"
        }
      ],
      "name": "addValidUniversity",
      "outputs": [],
      "payable": false,
      "stateMutability": "nonpayable",
      "type": "function"
    },
    {
      "constant": false,
      "inputs": [
        {
          "name": "_x",
          "type": "uint8"
        },
        {
          "name": "_y",
          "type": "uint8"
        },
        {
          "name": "_uniName",
          "type": "string"
        },
        {
          "name": "_imageURL",
          "type": "string"
        },
        {
          "name": "_description",
          "type": "string"
        },
        {
          "name": "_forSale",
          "type": "bool"
        }
      ],
      "name": "buyBlock",
      "outputs": [
        {
          "name": "success",
          "type": "bool"
        }
      ],
      "payable": true,
      "stateMutability": "payable",
      "type": "function"
    },
    {
      "constant": false,
      "inputs": [
        {
          "name": "_x",
          "type": "uint8"
        },
        {
          "name": "_y",
          "type": "uint8"
        },
        {
          "name": "_uniName",
          "type": "string"
        },
        {
          "name": "_imageURL",
          "type": "string"
        },
        {
          "name": "_description",
          "type": "string"
        },
        {
          "name": "_forSale",
          "type": "bool"
        },
        {
          "name": "_price",
          "type": "uint256"
        }
      ],
      "name": "updateBlock",
      "outputs": [
        {
          "name": "success",
          "type": "bool"
        }
      ],
      "payable": false,
      "stateMutability": "nonpayable",
      "type": "function"
    }
  ],
  "bytecode": "0x608060405234801561001057600080fd5b5060405160408062002ac48339810180604052810190808051906020019092919080519060200190929190505050336000806101000a81548173ffffffffffffffffffffffffffffffffffffffff021916908373ffffffffffffffffffffffffffffffffffffffff1602179055506100866101cc565b604051809103906000f0801580156100a2573d6000803e3d6000fd5b50600160006101000a81548173ffffffffffffffffffffffffffffffffffffffff021916908373ffffffffffffffffffffffffffffffffffffffff160217905550816003819055507f8ef2731b8cb966e6e75118af375b18f77c6c6a03ceab949ffc1e6b6623b71e03826040518082815260200191505060405180910390a180600260006101000a81548173ffffffffffffffffffffffffffffffffffffffff021916908373ffffffffffffffffffffffffffffffffffffffff1602179055507f9a2040719c4e9e3eb313f40a587cac21ad8f3bdd4616a6bb3e76dfaed09fe6e081604051808273ffffffffffffffffffffffffffffffffffffffff1673ffffffffffffffffffffffffffffffffffffffff16815260200191505060405180910390a150506101dd565b604051610851806200227383390190565b61208680620001ed6000396000f3006080604052600436106100a4576000357c0100000000000000000000000000000000000000000000000000000000900463ffffffff16806359b910d6146100a95780636103d70b146100ec57806362b33bb2146101035780636e674dd614610240578063715018a6146102a95780638da5cb5b146102c0578063b21248c914610317578063b475104714610344578063e2982c211461046a578063f2fde38b146104c1575b600080fd5b3480156100b557600080fd5b506100ea600480360381019080803573ffffffffffffffffffffffffffffffffffffffff169060200190929190505050610504565b005b3480156100f857600080fd5b506101016106db565b005b34801561010f57600080fd5b50610226600480360381019080803560ff169060200190929190803560ff169060200190929190803590602001908201803590602001908080601f0160208091040260200160405190810160405280939291908181526020018383808284378201915050505050509192919290803590602001908201803590602001908080601f0160208091040260200160405190810160405280939291908181526020018383808284378201915050505050509192919290803590602001908201803590602001908080601f0160208091040260200160405190810160405280939291908181526020018383808284378201915050505050509192919290803515159060200190929190803590602001909291905050506107b8565b604051808215151515815260200191505060405180910390f35b34801561024c57600080fd5b506102a7600480360381019080803590602001908201803590602001908080601f0160208091040260200160405190810160405280939291908181526020018383808284378201915050505050509192919290505050610dea565b005b3480156102b557600080fd5b506102be610f67565b005b3480156102cc57600080fd5b506102d5611069565b604051808273ffffffffffffffffffffffffffffffffffffffff1673ffffffffffffffffffffffffffffffffffffffff16815260200191505060405180910390f35b34801561032357600080fd5b506103426004803603810190808035906020019092919050505061108e565b005b610450600480360381019080803560ff169060200190929190803560ff169060200190929190803590602001908201803590602001908080601f0160208091040260200160405190810160405280939291908181526020018383808284378201915050505050509192919290803590602001908201803590602001908080601f0160208091040260200160405190810160405280939291908181526020018383808284378201915050505050509192919290803590602001908201803590602001908080601f016020809104026020016040519081016040528093929190818152602001838380828437820191505050505050919291929080351515906020019092919050505061112a565b604051808215151515815260200191505060405180910390f35b34801561047657600080fd5b506104ab600480360381019080803573ffffffffffffffffffffffffffffffffffffffff1690602001909291905050506116a9565b6040518082815260200191505060405180910390f35b3480156104cd57600080fd5b50610502600480360381019080803573ffffffffffffffffffffffffffffffffffffffff1690602001909291905050506117aa565b005b6000809054906101000a900473ffffffffffffffffffffffffffffffffffffffff1673ffffffffffffffffffffffffffffffffffffffff163373ffffffffffffffffffffffffffffffffffffffff1614151561055f57600080fd5b600260009054906101000a900473ffffffffffffffffffffffffffffffffffffffff1673ffffffffffffffffffffffffffffffffffffffff1663f2fde38b336040518263ffffffff167c0100000000000000000000000000000000000000000000000000000000028152600401808273ffffffffffffffffffffffffffffffffffffffff1673ffffffffffffffffffffffffffffffffffffffff168152602001915050600060405180830381600087803b15801561061c57600080fd5b505af1158015610630573d6000803e3d6000fd5b5050505080600260006101000a81548173ffffffffffffffffffffffffffffffffffffffff021916908373ffffffffffffffffffffffffffffffffffffffff1602179055507f9a2040719c4e9e3eb313f40a587cac21ad8f3bdd4616a6bb3e76dfaed09fe6e081604051808273ffffffffffffffffffffffffffffffffffffffff1673ffffffffffffffffffffffffffffffffffffffff16815260200191505060405180910390a150565b6000339050600160009054906101000a900473ffffffffffffffffffffffffffffffffffffffff1673ffffffffffffffffffffffffffffffffffffffff166351cff8d9826040518263ffffffff167c0100000000000000000000000000000000000000000000000000000000028152600401808273ffffffffffffffffffffffffffffffffffffffff1673ffffffffffffffffffffffffffffffffffffffff168152602001915050600060405180830381600087803b15801561079d57600080fd5b505af11580156107b1573d6000803e3d6000fd5b5050505050565b60008060006107c88a8a8a611811565b9150600260009054906101000a900473ffffffffffffffffffffffffffffffffffffffff1673ffffffffffffffffffffffffffffffffffffffff16634bbf4b5a836040518263ffffffff167c0100000000000000000000000000000000000000000000000000000000028152600401808260001916600019168152602001915050602060405180830381600087803b15801561086357600080fd5b505af1158015610877573d6000803e3d6000fd5b505050506040513d602081101561088d57600080fd5b810190808051906020019092919050505090508073ffffffffffffffffffffffffffffffffffffffff163373ffffffffffffffffffffffffffffffffffffffff16148061092657506000809054906101000a900473ffffffffffffffffffffffffffffffffffffffff1673ffffffffffffffffffffffffffffffffffffffff163373ffffffffffffffffffffffffffffffffffffffff16145b151561099a576040517f08c379a00000000000000000000000000000000000000000000000000000000081526004018080602001828103825260108152602001807f4e6f7420626c6f636b206f776e65722e0000000000000000000000000000000081525060200191505060405180910390fd5b600084111515610a38576040517f08c379a00000000000000000000000000000000000000000000000000000000081526004018080602001828103825260288152602001807f43616e2774207075742073656c6c696e67207072696365206c6f77657220746881526020017f616e207a65726f2e00000000000000000000000000000000000000000000000081525060400191505060405180910390fd5b600260009054906101000a900473ffffffffffffffffffffffffffffffffffffffff1673ffffffffffffffffffffffffffffffffffffffff1663fe09b9ee838989858a8a6040518763ffffffff167c010000000000000000000000000000000000000000000000000000000002815260040180876000191660001916815260200180602001806020018673ffffffffffffffffffffffffffffffffffffffff1673ffffffffffffffffffffffffffffffffffffffff16815260200185151515158152602001848152602001838103835288818151815260200191508051906020019080838360005b83811015610b3b578082015181840152602081019050610b20565b50505050905090810190601f168015610b685780820380516001836020036101000a031916815260200191505b50838103825287818151815260200191508051906020019080838360005b83811015610ba1578082015181840152602081019050610b86565b50505050905090810190601f168015610bce5780820380516001836020036101000a031916815260200191505b5098505050505050505050602060405180830381600087803b158015610bf357600080fd5b505af1158015610c07573d6000803e3d6000fd5b505050506040513d6020811015610c1d57600080fd5b8101908080519060200190929190505050508415158173ffffffffffffffffffffffffffffffffffffffff16896040518082805190602001908083835b602083101515610c7f5780518252602082019150602081019050602083039250610c5a565b6001836020036101000a03801982511681845116808217855250505050505090500191505060405180910390207fdfc9669a6ba79193b8ccdd6e5809bbafb6f1aa7446503aa33eb96ce8778125728d8d8c8c8b604051808660ff1660ff1681526020018560ff1660ff1681526020018060200180602001848152602001838103835286818151815260200191508051906020019080838360005b83811015610d34578082015181840152602081019050610d19565b50505050905090810190601f168015610d615780820380516001836020036101000a031916815260200191505b50838103825285818151815260200191508051906020019080838360005b83811015610d9a578082015181840152602081019050610d7f565b50505050905090810190601f168015610dc75780820380516001836020036101000a031916815260200191505b5097505050505050505060405180910390a4600192505050979650505050505050565b6000809054906101000a900473ffffffffffffffffffffffffffffffffffffffff1673ffffffffffffffffffffffffffffffffffffffff163373ffffffffffffffffffffffffffffffffffffffff16141515610e4557600080fd5b60016004826040518082805190602001908083835b602083101515610e7f5780518252602082019150602081019050602083039250610e5a565b6001836020036101000a038019825116818451168082178552505050505050905001915050908152602001604051809103902060006101000a81548160ff0219169083151502179055507e6d1a06d56260f798f262e4c7534f4129674383e7bf40ec20be0b23f55c5214816040518080602001828103825283818151815260200191508051906020019080838360005b83811015610f2a578082015181840152602081019050610f0f565b50505050905090810190601f168015610f575780820380516001836020036101000a031916815260200191505b509250505060405180910390a150565b6000809054906101000a900473ffffffffffffffffffffffffffffffffffffffff1673ffffffffffffffffffffffffffffffffffffffff163373ffffffffffffffffffffffffffffffffffffffff16141515610fc257600080fd5b6000809054906101000a900473ffffffffffffffffffffffffffffffffffffffff1673ffffffffffffffffffffffffffffffffffffffff167ff8df31144d9c2f0f6b59d69b8b98abd5459d07f2742c4df920b25aae33c6482060405160405180910390a260008060006101000a81548173ffffffffffffffffffffffffffffffffffffffff021916908373ffffffffffffffffffffffffffffffffffffffff160217905550565b6000809054906101000a900473ffffffffffffffffffffffffffffffffffffffff1681565b6000809054906101000a900473ffffffffffffffffffffffffffffffffffffffff1673ffffffffffffffffffffffffffffffffffffffff163373ffffffffffffffffffffffffffffffffffffffff161415156110e957600080fd5b806003819055507f8ef2731b8cb966e6e75118af375b18f77c6c6a03ceab949ffc1e6b6623b71e03816040518082815260200191505060405180910390a150565b6000611134611fff565b60008061114a6111458b8b8b611811565b611a88565b92508260c001511561134557826060015115156111cf576040517f08c379a00000000000000000000000000000000000000000000000000000000081526004018080602001828103825260168152602001807f426c6f636b206973206e6f7420666f722073616c652e0000000000000000000081525060200191505060405180910390fd5b8260800151341015151561124b576040517f08c379a000000000000000000000000000000000000000000000000000000000815260040180806020018281038252601e8152602001807f4e6f7420656e6f75676820657468657220746f2062757920626c6f636b2e000081525060200191505060405180910390fd5b8260400151915061125c8234611cc5565b3373ffffffffffffffffffffffffffffffffffffffff168273ffffffffffffffffffffffffffffffffffffffff16896040518082805190602001908083835b6020831015156112c0578051825260208201915060208101905060208303925061129b565b6001836020036101000a03801982511681845116808217855250505050505090500191505060405180910390207fd47d39b84dc709dec83d944b155fd08f50124b444dd118e7857401c2a48124648d8d34604051808460ff1660ff1681526020018360ff1660ff168152602001828152602001935050505060405180910390a46114cd565b60035490508034101515156113e8576040517f08c379a00000000000000000000000000000000000000000000000000000000081526004018080602001828103825260218152602001807f4e6f7420656e6f75676820657468657220746f2063726561746520626c6f636b81526020017f2e0000000000000000000000000000000000000000000000000000000000000081525060400191505060405180910390fd5b3373ffffffffffffffffffffffffffffffffffffffff163073ffffffffffffffffffffffffffffffffffffffff16896040518082805190602001908083835b60208310151561144c5780518252602082019150602081019050602083039250611427565b6001836020036101000a03801982511681845116808217855250505050505090500191505060405180910390207fd47d39b84dc709dec83d944b155fd08f50124b444dd118e7857401c2a48124648d8d34604051808460ff1660ff1681526020018360ff1660ff168152602001828152602001935050505060405180910390a45b6114d987878734611d9f565b600019168360a0015160001916141515611698578415153373ffffffffffffffffffffffffffffffffffffffff16896040518082805190602001908083835b60208310151561153d5780518252602082019150602081019050602083039250611518565b6001836020036101000a03801982511681845116808217855250505050505090500191505060405180910390207fdfc9669a6ba79193b8ccdd6e5809bbafb6f1aa7446503aa33eb96ce8778125728d8d8c8c34604051808660ff1660ff1681526020018560ff1660ff1681526020018060200180602001848152602001838103835286818151815260200191508051906020019080838360005b838110156115f25780820151818401526020810190506115d7565b50505050905090810190601f16801561161f5780820380516001836020036101000a031916815260200191505b50838103825285818151815260200191508051906020019080838360005b8381101561165857808201518184015260208101905061163d565b50505050905090810190601f1680156116855780820380516001836020036101000a031916815260200191505b5097505050505050505060405180910390a45b600193505050509695505050505050565b6000600160009054906101000a900473ffffffffffffffffffffffffffffffffffffffff1673ffffffffffffffffffffffffffffffffffffffff1663e3a9db1a836040518263ffffffff167c0100000000000000000000000000000000000000000000000000000000028152600401808273ffffffffffffffffffffffffffffffffffffffff1673ffffffffffffffffffffffffffffffffffffffff168152602001915050602060405180830381600087803b15801561176857600080fd5b505af115801561177c573d6000803e3d6000fd5b505050506040513d602081101561179257600080fd5b81019080805190602001909291905050509050919050565b6000809054906101000a900473ffffffffffffffffffffffffffffffffffffffff1673ffffffffffffffffffffffffffffffffffffffff163373ffffffffffffffffffffffffffffffffffffffff1614151561180557600080fd5b61180e81611f05565b50565b60006004826040518082805190602001908083835b60208310151561184b5780518252602082019150602081019050602083039250611826565b6001836020036101000a038019825116818451168082178552505050505050905001915050908152602001604051809103902060009054906101000a900460ff161515611900576040517f08c379a00000000000000000000000000000000000000000000000000000000081526004018080602001828103825260128152602001807f496e76616c696420556e6976657273697479000000000000000000000000000081525060200191505060405180910390fd5b838383604051602001808460ff1660ff167f0100000000000000000000000000000000000000000000000000000000000000028152600101807f3a000000000000000000000000000000000000000000000000000000000000008152506001018360ff1660ff167f0100000000000000000000000000000000000000000000000000000000000000028152600101807f400000000000000000000000000000000000000000000000000000000000000081525060010182805190602001908083835b6020831015156119e757805182526020820191506020810190506020830392506119c2565b6001836020036101000a03801982511681845116808217855250505050505090500193505050506040516020818303038152906040526040518082805190602001908083835b602083101515611a525780518252602082019150602081019050602083039250611a2d565b6001836020036101000a038019825116818451168082178552505050505050905001915050604051809103902090509392505050565b611a90611fff565b6060806000806000806000600260009054906101000a900473ffffffffffffffffffffffffffffffffffffffff1673ffffffffffffffffffffffffffffffffffffffff1663664a4a058a6040518263ffffffff167c0100000000000000000000000000000000000000000000000000000000028152600401808260001916600019168152602001915050600060405180830381600087803b158015611b3457600080fd5b505af1158015611b48573d6000803e3d6000fd5b505050506040513d6000823e3d601f19601f8201168201806040525060c0811015611b7257600080fd5b810190808051640100000000811115611b8a57600080fd5b82810190506020810184811115611ba057600080fd5b8151856001820283011164010000000082111715611bbd57600080fd5b50509291906020018051640100000000811115611bd957600080fd5b82810190506020810184811115611bef57600080fd5b8151856001820283011164010000000082111715611c0c57600080fd5b505092919060200180519060200190929190805190602001909291908051906020019092919080519060200190929190505050809750819850829950839a50849b50859c50505050505050611c6387878686611d9f565b905060e0604051908101604052808881526020018781526020018673ffffffffffffffffffffffffffffffffffffffff168152602001851515815260200184815260200182600019168152602001831515815250975050505050505050919050565b600160009054906101000a900473ffffffffffffffffffffffffffffffffffffffff1673ffffffffffffffffffffffffffffffffffffffff1663f340fa0182846040518363ffffffff167c0100000000000000000000000000000000000000000000000000000000028152600401808273ffffffffffffffffffffffffffffffffffffffff1673ffffffffffffffffffffffffffffffffffffffff1681526020019150506000604051808303818588803b158015611d8257600080fd5b505af1158015611d96573d6000803e3d6000fd5b50505050505050565b6000848484846040516020018085805190602001908083835b602083101515611ddd5780518252602082019150602081019050602083039250611db8565b6001836020036101000a03801982511681845116808217855250505050505090500184805190602001908083835b602083101515611e305780518252602082019150602081019050602083039250611e0b565b6001836020036101000a03801982511681845116808217855250505050505090500183151515157f01000000000000000000000000000000000000000000000000000000000000000281526001018281526020019450505050506040516020818303038152906040526040518082805190602001908083835b602083101515611ece5780518252602082019150602081019050602083039250611ea9565b6001836020036101000a03801982511681845116808217855250505050505090500191505060405180910390209050949350505050565b600073ffffffffffffffffffffffffffffffffffffffff168173ffffffffffffffffffffffffffffffffffffffff1614151515611f4157600080fd5b8073ffffffffffffffffffffffffffffffffffffffff166000809054906101000a900473ffffffffffffffffffffffffffffffffffffffff1673ffffffffffffffffffffffffffffffffffffffff167f8be0079c531659141344cd1fd0a4f28419497f9722a3daafe3b4186f6b6457e060405160405180910390a3806000806101000a81548173ffffffffffffffffffffffffffffffffffffffff021916908373ffffffffffffffffffffffffffffffffffffffff16021790555050565b60e0604051908101604052806060815260200160608152602001600073ffffffffffffffffffffffffffffffffffffffff168152602001600015158152602001600081526020016000801916815260200160001515815250905600a165627a7a723058206e12f6ec34c0b1596261d8cd721d291c0ab75bcb3ead1ea395aff1086d3fbca400296080604052336000806101000a81548173ffffffffffffffffffffffffffffffffffffffff021916908373ffffffffffffffffffffffffffffffffffffffff1602179055506107fe806100536000396000f300608060405260043610610078576000357c0100000000000000000000000000000000000000000000000000000000900463ffffffff16806351cff8d91461007d578063715018a6146100c05780638da5cb5b146100d7578063e3a9db1a1461012e578063f2fde38b14610185578063f340fa01146101c8575b600080fd5b34801561008957600080fd5b506100be600480360381019080803573ffffffffffffffffffffffffffffffffffffffff1690602001909291905050506101fe565b005b3480156100cc57600080fd5b506100d561039e565b005b3480156100e357600080fd5b506100ec6104a0565b604051808273ffffffffffffffffffffffffffffffffffffffff1673ffffffffffffffffffffffffffffffffffffffff16815260200191505060405180910390f35b34801561013a57600080fd5b5061016f600480360381019080803573ffffffffffffffffffffffffffffffffffffffff1690602001909291905050506104c5565b6040518082815260200191505060405180910390f35b34801561019157600080fd5b506101c6600480360381019080803573ffffffffffffffffffffffffffffffffffffffff16906020019092919050505061050e565b005b6101fc600480360381019080803573ffffffffffffffffffffffffffffffffffffffff169060200190929190505050610575565b005b60008060009054906101000a900473ffffffffffffffffffffffffffffffffffffffff1673ffffffffffffffffffffffffffffffffffffffff163373ffffffffffffffffffffffffffffffffffffffff1614151561025b57600080fd5b600160008373ffffffffffffffffffffffffffffffffffffffff1673ffffffffffffffffffffffffffffffffffffffff168152602001908152602001600020549050803073ffffffffffffffffffffffffffffffffffffffff1631101515156102c057fe5b6000600160008473ffffffffffffffffffffffffffffffffffffffff1673ffffffffffffffffffffffffffffffffffffffff168152602001908152602001600020819055508173ffffffffffffffffffffffffffffffffffffffff166108fc829081150290604051600060405180830381858888f1935050505015801561034b573d6000803e3d6000fd5b508173ffffffffffffffffffffffffffffffffffffffff167f7084f5476618d8e60b11ef0d7d3f06914655adb8793e28ff7f018d4c76d505d5826040518082815260200191505060405180910390a25050565b6000809054906101000a900473ffffffffffffffffffffffffffffffffffffffff1673ffffffffffffffffffffffffffffffffffffffff163373ffffffffffffffffffffffffffffffffffffffff161415156103f957600080fd5b6000809054906101000a900473ffffffffffffffffffffffffffffffffffffffff1673ffffffffffffffffffffffffffffffffffffffff167ff8df31144d9c2f0f6b59d69b8b98abd5459d07f2742c4df920b25aae33c6482060405160405180910390a260008060006101000a81548173ffffffffffffffffffffffffffffffffffffffff021916908373ffffffffffffffffffffffffffffffffffffffff160217905550565b6000809054906101000a900473ffffffffffffffffffffffffffffffffffffffff1681565b6000600160008373ffffffffffffffffffffffffffffffffffffffff1673ffffffffffffffffffffffffffffffffffffffff168152602001908152602001600020549050919050565b6000809054906101000a900473ffffffffffffffffffffffffffffffffffffffff1673ffffffffffffffffffffffffffffffffffffffff163373ffffffffffffffffffffffffffffffffffffffff1614151561056957600080fd5b610572816106bc565b50565b60008060009054906101000a900473ffffffffffffffffffffffffffffffffffffffff1673ffffffffffffffffffffffffffffffffffffffff163373ffffffffffffffffffffffffffffffffffffffff161415156105d257600080fd5b34905061062781600160008573ffffffffffffffffffffffffffffffffffffffff1673ffffffffffffffffffffffffffffffffffffffff168152602001908152602001600020546107b690919063ffffffff16565b600160008473ffffffffffffffffffffffffffffffffffffffff1673ffffffffffffffffffffffffffffffffffffffff168152602001908152602001600020819055508173ffffffffffffffffffffffffffffffffffffffff167f2da466a7b24304f47e87fa2e1e5a81b9831ce54fec19055ce277ca2f39ba42c4826040518082815260200191505060405180910390a25050565b600073ffffffffffffffffffffffffffffffffffffffff168173ffffffffffffffffffffffffffffffffffffffff16141515156106f857600080fd5b8073ffffffffffffffffffffffffffffffffffffffff166000809054906101000a900473ffffffffffffffffffffffffffffffffffffffff1673ffffffffffffffffffffffffffffffffffffffff167f8be0079c531659141344cd1fd0a4f28419497f9722a3daafe3b4186f6b6457e060405160405180910390a3806000806101000a81548173ffffffffffffffffffffffffffffffffffffffff021916908373ffffffffffffffffffffffffffffffffffffffff16021790555050565b600081830190508281101515156107c957fe5b809050929150505600a165627a7a72305820b9a9f7c193343f3ea4dca9983240091db783eafe00362787b24da7895ff954d80029",
  "source": "pragma solidity ^0.4.24; \n\n/** \n  * @title Kings Of London DApp\n  * @author Frederico Lacs\n  * @version 0.1.0\n **/\n \nimport \"../node_modules/openzeppelin-solidity/contracts/ownership/Ownable.sol\";\nimport \"../node_modules/openzeppelin-solidity/contracts/payment/PullPayment.sol\";\n\ncontract KOLogic is Ownable, PullPayment {\n    constructor (uint256 _blockCreationPrice, address _storageAddress) public {\n        blockCreationPrice = _blockCreationPrice;\n        emit UpdatedBlockCreationValue(_blockCreationPrice);\n        s = StorageInterface(_storageAddress);\n        emit UpdatedStorageAddress(_storageAddress);\n    }\n\n    StorageInterface internal s;\n    uint256 internal blockCreationPrice;\n    mapping(string => bool) internal isValidUniversity;\n\n    struct Block{\n        string imageURL;\n        string description;\n        address blockOwner;\n        bool forSale;\n        uint256 price;\n        // hash of information of block without blockOwner, for fast comparisons\n        bytes32 infoHash;\n        bool isEntity;\n    } \n\n    event NewValidUniversity (string _name);\n    event UpdatedBlockCreationValue (uint256 value);\n    event UpdatedStorageAddress (address newStorageAddress);\n    event BlockBought (\n        uint8 x, \n        uint8 y, \n        string indexed universityName, \n        address indexed oldOwner, \n        address indexed newOwner, \n        uint256 price\n    );\n    event BlockInformationUpdated (\n        uint8 x, \n        uint8 y, \n        string indexed universityName, \n        string _imageURL, \n        string _description, \n        address indexed _blockOwner, \n        bool indexed _forSale, \n        uint256 _price\n    );\n\n    function setBlockCreationPrice(uint256 _blockCreationPrice) public onlyOwner {\n        blockCreationPrice = _blockCreationPrice;\n        emit UpdatedBlockCreationValue(_blockCreationPrice);\n    }\n\n    function setStorageAddress(address _storageAddress) public onlyOwner {\n        s.transferOwnership(msg.sender);\n        s = StorageInterface(_storageAddress);\n        emit UpdatedStorageAddress(_storageAddress);\n    }\n\n    function addValidUniversity(string _name) public onlyOwner {\n        isValidUniversity[_name] = true;\n        emit NewValidUniversity(_name);\n    }\n\n    /*\n     *   Could have made this a pure function and added the uni verification somewhere else.\n     *   Maybe verify for valid universities in the frontend input?\n     */\n    function getBlockID(uint8 _x, uint8 _y, string _uniName) internal view returns (bytes32 id) {\n        require(isValidUniversity[_uniName], \"Invalid University\");\n\n        id = keccak256(abi.encodePacked(_x, \":\", _y, \"@\", _uniName));\n    }\n\n    function getInfoHash(string imageURL, string description, bool forSale, uint price) internal pure returns ( bytes32 infoHash) {\n        infoHash = keccak256(abi.encodePacked(imageURL, description, forSale, price));\n    }\n\n    function getBlock(bytes32 _id) internal view returns (Block b) {\n        string memory imageURL;\n        string memory description;\n        address blockOwner;\n        bool forSale;\n        uint256 price;\n        bool isEntity;\n    \n        (imageURL, description, blockOwner, forSale, price, isEntity) = s.getBlock(_id);\n        bytes32 infoHash = getInfoHash(imageURL, description, forSale, price);\n\n        b = Block(imageURL, description, blockOwner, forSale, price, infoHash, isEntity);\n    }\n\n    function buyBlock (\n        uint8 _x, \n        uint8 _y, \n        string _uniName,\n        string _imageURL,\n        string _description,\n        bool _forSale\n    )\n        public \n        payable \n        returns (bool success)\n    {\n        // blockID = getBlockID(_x, _y, _uniName);\n        Block memory currentBlock = getBlock(getBlockID(_x, _y, _uniName));\n\n\n        // check if block is already created\n        if(currentBlock.isEntity) {\n            require(currentBlock.forSale, \"Block is not for sale.\");\n            require(msg.value >= currentBlock.price, \"Not enough ether to buy block.\");\n            \n            address oldOwner = currentBlock.blockOwner;\n            \n            // currentBlock variable is read only, so we call the update function\n            //require(s.updateBlock(blockID, _imageURL, _description, msg.sender, _forSale, msg.value), \"Failed to update block.\");\n\n            // pull payment from OpenZeppelin\n            asyncTransfer(oldOwner, msg.value);\n\n            emit BlockBought(_x, _y, _uniName, oldOwner, msg.sender, msg.value);\n        }\n        else {\n            // created new variable to have it in scope and not read from storage twice\n            uint256 _blockCreationPrice = blockCreationPrice;\n            require(msg.value >= _blockCreationPrice, \"Not enough ether to create block.\");\n\n            //require(s.newBlock(blockID, _imageURL, _description, msg.sender, _forSale, _blockCreationPrice), \"Failed to create new block.\");\n            // when new block is created, block is being bought from this contract.\n            emit BlockBought(_x, _y, _uniName, this, msg.sender, msg.value);\n        }\n        // bool blockUpdated = oldInfoHash != newInfoHash; \n        // if(blockUpdated);\n        if(currentBlock.infoHash != getInfoHash(_imageURL, _description, _forSale, msg.value)){\n            emit BlockInformationUpdated(_x, _y, _uniName, _imageURL, _description, msg.sender, _forSale, msg.value);\n        }\n        success = true;\n    }\n\n    function updateBlock (\n        uint8 _x, \n        uint8 _y, \n        string _uniName,\n        string _imageURL, \n        string _description, \n        bool _forSale, \n        uint256 _price\n    )\n        public\n        returns (bool success)\n    {\n        bytes32 blockID = getBlockID(_x, _y, _uniName);\n        address blockOwner = s.getBlockOwner(blockID);\n        // Added admin access in case we need to change inappropriate content\n        require(msg.sender == blockOwner || msg.sender == owner, \"Not block owner.\");\n        require(_price > 0, \"Can't put selling price lower than zero.\");\n        \n        s.updateBlock(blockID, _imageURL, _description, blockOwner, _forSale, _price);\n        emit BlockInformationUpdated(_x, _y, _uniName, _imageURL, _description, blockOwner, _forSale, _price);\n        success = true;\n    }\n}\n\ninterface StorageInterface {\n    function newBlock (\n        bytes32 _blockID, \n        string _imageURL, \n        string _description, \n        address _blockOwner, \n        bool _forSale,\n        uint256 _price\n    ) external returns (bool success);\n\n    function updateBlock (\n        bytes32 _blockID, \n        string _imageURL, \n        string _description, \n        address _blockOwner, \n        bool _forSale, \n        uint256 _price\n    ) external returns (bool success);\n\n    function deleteBlock (bytes32 _blockID) external returns (bool success);\n\n    function getBlock(bytes32 _blockID) external view returns (\n        string imageURL,\n        string description,\n        address blockOwner,\n        bool forSale,\n        uint256 price,\n        bool isEntity\n    );\n\n    function getBlockOwner(bytes32 _blockID) external view returns (address blockOwner);\n    function transferOwnership(address _newOwner) external;\n}\n\ncontract KolStorageV1 is Ownable {\n    struct Block{\n        string imageURL;\n        string description;\n        address blockOwner;\n        bool forSale;\n        uint256 price;\n        // If block is available, means it is not an entity\n        bool isEntity;\n    }\n\n    // design decision to make this internal with getters.\n    // if visibility public, solc would auto-generate getters.\n    mapping(bytes32 => Block) internal blocks;\n    \n    function newBlock (\n        bytes32 _blockID, \n        string _imageURL, \n        string _description, \n        address _blockOwner, \n        bool _forSale,\n        uint256 _price\n    ) \n        external \n        onlyOwner \n        returns (bool success) \n    {\n        require(blocks[_blockID].isEntity == false, \"Block was already created.\");\n        blocks[_blockID] = Block(_imageURL, _description, _blockOwner, _forSale, _price, true);\n        success = true;\n    }\n\n    function updateBlock (\n        bytes32 _blockID, \n        string _imageURL, \n        string _description, \n        address _blockOwner, \n        bool _forSale, \n        uint256 _price\n    ) \n        external \n        onlyOwner \n        returns (bool success) \n    {\n        require(blocks[_blockID].isEntity == true, \"Block was not created, can't be updated.\");\n        blocks[_blockID] = Block(_imageURL, _description, _blockOwner, _forSale, _price, true);\n        success = true;\n    }\n\n    function deleteBlock(bytes32 _blockID) external onlyOwner returns (bool success) {\n        blocks[_blockID].isEntity = false;\n        success = true;\n    }\n\n    function getBlock(bytes32 _blockID) \n        external\n        view\n        onlyOwner\n        returns (\n            string imageURL,\n            string description,\n            address blockOwner,\n            bool forSale,\n            uint256 price,\n            bool isEntity\n        )\n    {\n        Block memory b = blocks[_blockID];\n\n        imageURL = b.imageURL;\n        description = b.description;\n        blockOwner = b.blockOwner;\n        forSale = b.forSale;\n        price = b.price;\n        isEntity = b.isEntity;\n    }\n\n    function getBlockOwner(bytes32 _blockID) external view returns (address blockOwner) {\n        blockOwner = blocks[_blockID].blockOwner;\n    }\n}",
  "sourcePath": "/Users/fred/dev/kings-of-london/contracts/kol-main.sol",
  "compiler": {
    "name": "solc",
    "version": "0.4.24+commit.e67f0147.Emscripten.clang"
  },
  "schemaVersion": "2.0.1",
  "updatedAt": "2018-10-01T14:17:03.190Z"
}